{
  "contractName": "RoseApeERC1155",
  "abi": [
    {
      "inputs": [
        {
          "internalType": "string",
          "name": "name_",
          "type": "string"
        },
        {
          "internalType": "string",
          "name": "symbol_",
          "type": "string"
        }
      ],
      "stateMutability": "nonpayable",
      "type": "constructor"
    },
    {
      "anonymous": false,
      "inputs": [
        {
          "indexed": true,
          "internalType": "address",
          "name": "account",
          "type": "address"
        },
        {
          "indexed": true,
          "internalType": "address",
          "name": "operator",
          "type": "address"
        },
        {
          "indexed": false,
          "internalType": "bool",
          "name": "approved",
          "type": "bool"
        }
      ],
      "name": "ApprovalForAll",
      "type": "event"
    },
    {
      "anonymous": false,
      "inputs": [
        {
          "indexed": true,
          "internalType": "address",
          "name": "to",
          "type": "address"
        },
        {
          "indexed": false,
          "internalType": "uint256",
          "name": "tokenId",
          "type": "uint256"
        },
        {
          "indexed": false,
          "internalType": "uint256",
          "name": "amount",
          "type": "uint256"
        }
      ],
      "name": "Mint",
      "type": "event"
    },
    {
      "anonymous": false,
      "inputs": [
        {
          "indexed": true,
          "internalType": "address",
          "name": "operator",
          "type": "address"
        },
        {
          "indexed": true,
          "internalType": "address",
          "name": "from",
          "type": "address"
        },
        {
          "indexed": true,
          "internalType": "address",
          "name": "to",
          "type": "address"
        },
        {
          "indexed": false,
          "internalType": "uint256[]",
          "name": "ids",
          "type": "uint256[]"
        },
        {
          "indexed": false,
          "internalType": "uint256[]",
          "name": "values",
          "type": "uint256[]"
        }
      ],
      "name": "TransferBatch",
      "type": "event"
    },
    {
      "anonymous": false,
      "inputs": [
        {
          "indexed": true,
          "internalType": "address",
          "name": "operator",
          "type": "address"
        },
        {
          "indexed": true,
          "internalType": "address",
          "name": "from",
          "type": "address"
        },
        {
          "indexed": true,
          "internalType": "address",
          "name": "to",
          "type": "address"
        },
        {
          "indexed": false,
          "internalType": "uint256",
          "name": "id",
          "type": "uint256"
        },
        {
          "indexed": false,
          "internalType": "uint256",
          "name": "value",
          "type": "uint256"
        }
      ],
      "name": "TransferSingle",
      "type": "event"
    },
    {
      "anonymous": false,
      "inputs": [
        {
          "indexed": false,
          "internalType": "string",
          "name": "value",
          "type": "string"
        },
        {
          "indexed": true,
          "internalType": "uint256",
          "name": "id",
          "type": "uint256"
        }
      ],
      "name": "URI",
      "type": "event"
    },
    {
      "inputs": [],
      "name": "admin",
      "outputs": [
        {
          "internalType": "address",
          "name": "",
          "type": "address"
        }
      ],
      "stateMutability": "view",
      "type": "function"
    },
    {
      "inputs": [
        {
          "internalType": "address",
          "name": "account",
          "type": "address"
        },
        {
          "internalType": "uint256",
          "name": "id",
          "type": "uint256"
        }
      ],
      "name": "balanceOf",
      "outputs": [
        {
          "internalType": "uint256",
          "name": "",
          "type": "uint256"
        }
      ],
      "stateMutability": "view",
      "type": "function"
    },
    {
      "inputs": [
        {
          "internalType": "address[]",
          "name": "accounts",
          "type": "address[]"
        },
        {
          "internalType": "uint256[]",
          "name": "ids",
          "type": "uint256[]"
        }
      ],
      "name": "balanceOfBatch",
      "outputs": [
        {
          "internalType": "uint256[]",
          "name": "",
          "type": "uint256[]"
        }
      ],
      "stateMutability": "view",
      "type": "function"
    },
    {
      "inputs": [
        {
          "internalType": "uint256",
          "name": "",
          "type": "uint256"
        }
      ],
      "name": "info",
      "outputs": [
        {
          "internalType": "bytes",
          "name": "name",
          "type": "bytes"
        },
        {
          "internalType": "bytes",
          "name": "description",
          "type": "bytes"
        },
        {
          "internalType": "bytes",
          "name": "logo",
          "type": "bytes"
        },
        {
          "internalType": "bytes",
          "name": "additionalInfo",
          "type": "bytes"
        }
      ],
      "stateMutability": "view",
      "type": "function"
    },
    {
      "inputs": [
        {
          "internalType": "address",
          "name": "account",
          "type": "address"
        },
        {
          "internalType": "address",
          "name": "operator",
          "type": "address"
        }
      ],
      "name": "isApprovedForAll",
      "outputs": [
        {
          "internalType": "bool",
          "name": "",
          "type": "bool"
        }
      ],
      "stateMutability": "view",
      "type": "function"
    },
    {
      "inputs": [],
      "name": "name",
      "outputs": [
        {
          "internalType": "string",
          "name": "",
          "type": "string"
        }
      ],
      "stateMutability": "view",
      "type": "function"
    },
    {
      "inputs": [
        {
          "internalType": "address",
          "name": "from",
          "type": "address"
        },
        {
          "internalType": "address",
          "name": "to",
          "type": "address"
        },
        {
          "internalType": "uint256[]",
          "name": "ids",
          "type": "uint256[]"
        },
        {
          "internalType": "uint256[]",
          "name": "amounts",
          "type": "uint256[]"
        },
        {
          "internalType": "bytes",
          "name": "data",
          "type": "bytes"
        }
      ],
      "name": "safeBatchTransferFrom",
      "outputs": [],
      "stateMutability": "nonpayable",
      "type": "function"
    },
    {
      "inputs": [
        {
          "internalType": "address",
          "name": "from",
          "type": "address"
        },
        {
          "internalType": "address",
          "name": "to",
          "type": "address"
        },
        {
          "internalType": "uint256",
          "name": "id",
          "type": "uint256"
        },
        {
          "internalType": "uint256",
          "name": "amount",
          "type": "uint256"
        },
        {
          "internalType": "bytes",
          "name": "data",
          "type": "bytes"
        }
      ],
      "name": "safeTransferFrom",
      "outputs": [],
      "stateMutability": "nonpayable",
      "type": "function"
    },
    {
      "inputs": [
        {
          "internalType": "address",
          "name": "operator",
          "type": "address"
        },
        {
          "internalType": "bool",
          "name": "approved",
          "type": "bool"
        }
      ],
      "name": "setApprovalForAll",
      "outputs": [],
      "stateMutability": "nonpayable",
      "type": "function"
    },
    {
      "inputs": [
        {
          "internalType": "bytes4",
          "name": "interfaceId",
          "type": "bytes4"
        }
      ],
      "name": "supportsInterface",
      "outputs": [
        {
          "internalType": "bool",
          "name": "",
          "type": "bool"
        }
      ],
      "stateMutability": "view",
      "type": "function"
    },
    {
      "inputs": [],
      "name": "symbol",
      "outputs": [
        {
          "internalType": "string",
          "name": "",
          "type": "string"
        }
      ],
      "stateMutability": "view",
      "type": "function"
    },
    {
      "inputs": [],
      "name": "totalSupply",
      "outputs": [
        {
          "internalType": "uint256",
          "name": "",
          "type": "uint256"
        }
      ],
      "stateMutability": "view",
      "type": "function"
    },
    {
      "inputs": [
        {
          "internalType": "uint256",
          "name": "",
          "type": "uint256"
        }
      ],
      "name": "uri",
      "outputs": [
        {
          "internalType": "string",
          "name": "",
          "type": "string"
        }
      ],
      "stateMutability": "view",
      "type": "function"
    },
    {
      "inputs": [
        {
          "internalType": "uint256",
          "name": "supply",
          "type": "uint256"
        },
        {
          "internalType": "string",
          "name": "name_",
          "type": "string"
        },
        {
          "internalType": "string",
          "name": "description_",
          "type": "string"
        },
        {
          "internalType": "string",
          "name": "logo_",
          "type": "string"
        },
        {
          "internalType": "string",
          "name": "additionalInfo_",
          "type": "string"
        }
      ],
      "name": "mint",
      "outputs": [
        {
          "internalType": "bool",
          "name": "",
          "type": "bool"
        }
      ],
      "stateMutability": "nonpayable",
      "type": "function"
    }
  ],
  "bytecode": "0x608060405260006003553480156200001657600080fd5b50604051620034463803806200344683398181016040528101906200003c919062000368565b6040518060400160405280601e81526020017f68747470733a2f2f697066732e696f2f697066732f7b69647d2e6a736f6e00008152506200008381620000ff60201b60201c565b5033600460006101000a81548173ffffffffffffffffffffffffffffffffffffffff021916908373ffffffffffffffffffffffffffffffffffffffff1602179055508160059080519060200190620000dd9291906200011b565b508060069080519060200190620000f69291906200011b565b50505062000452565b8060029080519060200190620001179291906200011b565b5050565b82805462000129906200041c565b90600052602060002090601f0160209004810192826200014d576000855562000199565b82601f106200016857805160ff191683800117855562000199565b8280016001018555821562000199579182015b82811115620001985782518255916020019190600101906200017b565b5b509050620001a89190620001ac565b5090565b5b80821115620001c7576000816000905550600101620001ad565b5090565b6000604051905090565b600080fd5b600080fd5b600080fd5b600080fd5b6000601f19601f8301169050919050565b7f4e487b7100000000000000000000000000000000000000000000000000000000600052604160045260246000fd5b6200023482620001e9565b810181811067ffffffffffffffff82111715620002565762000255620001fa565b5b80604052505050565b60006200026b620001cb565b905062000279828262000229565b919050565b600067ffffffffffffffff8211156200029c576200029b620001fa565b5b620002a782620001e9565b9050602081019050919050565b60005b83811015620002d4578082015181840152602081019050620002b7565b83811115620002e4576000848401525b50505050565b600062000301620002fb846200027e565b6200025f565b90508281526020810184848401111562000320576200031f620001e4565b5b6200032d848285620002b4565b509392505050565b600082601f8301126200034d576200034c620001df565b5b81516200035f848260208601620002ea565b91505092915050565b60008060408385031215620003825762000381620001d5565b5b600083015167ffffffffffffffff811115620003a357620003a2620001da565b5b620003b18582860162000335565b925050602083015167ffffffffffffffff811115620003d557620003d4620001da565b5b620003e38582860162000335565b9150509250929050565b7f4e487b7100000000000000000000000000000000000000000000000000000000600052602260045260246000fd5b600060028204905060018216806200043557607f821691505b602082108114156200044c576200044b620003ed565b5b50919050565b612fe480620004626000396000f3fe608060405234801561001057600080fd5b50600436106100e95760003560e01c80634e1273f41161008c578063e985e9c511610066578063e985e9c514610273578063ed0b4cdc146102a3578063f242432a146102d3578063f851a440146102ef576100e9565b80634e1273f41461020957806395d89b4114610239578063a22cb46514610257576100e9565b80630e89341c116100c85780630e89341c1461016c57806318160ddd1461019c5780632e340599146101ba5780632eb2c2d6146101ed576100e9565b8062fdd58e146100ee57806301ffc9a71461011e57806306fdde031461014e575b600080fd5b61010860048036038101906101039190611b0a565b61030d565b6040516101159190611b59565b60405180910390f35b61013860048036038101906101339190611bcc565b6103d6565b6040516101459190611c14565b60405180910390f35b6101566104a8565b6040516101639190611cc8565b60405180910390f35b61018660048036038101906101819190611cea565b610536565b6040516101939190611cc8565b60405180910390f35b6101a46105ca565b6040516101b19190611b59565b60405180910390f35b6101d460048036038101906101cf9190611cea565b6105d0565b6040516101e49493929190611d6c565b60405180910390f35b61020760048036038101906102029190611fca565b610820565b005b610223600480360381019061021e919061215c565b610bca565b6040516102309190612292565b60405180910390f35b610241610ce3565b60405161024e9190611cc8565b60405180910390f35b610271600480360381019061026c91906122e0565b610d71565b005b61028d60048036038101906102889190612320565b610ef2565b60405161029a9190611c14565b60405180910390f35b6102bd60048036038101906102b89190612401565b610f86565b6040516102ca9190611c14565b60405180910390f35b6102ed60048036038101906102e891906124ec565b61109e565b005b6102f76113b6565b6040516103049190612592565b60405180910390f35b60008073ffffffffffffffffffffffffffffffffffffffff168373ffffffffffffffffffffffffffffffffffffffff16141561037e576040517f08c379a00000000000000000000000000000000000000000000000000000000081526004016103759061261f565b60405180910390fd5b60008083815260200190815260200160002060008473ffffffffffffffffffffffffffffffffffffffff1673ffffffffffffffffffffffffffffffffffffffff16815260200190815260200160002054905092915050565b60007f01ffc9a7000000000000000000000000000000000000000000000000000000007bffffffffffffffffffffffffffffffffffffffffffffffffffffffff1916827bffffffffffffffffffffffffffffffffffffffffffffffffffffffff191614806104a157507f0e89341c000000000000000000000000000000000000000000000000000000007bffffffffffffffffffffffffffffffffffffffffffffffffffffffff1916827bffffffffffffffffffffffffffffffffffffffffffffffffffffffff1916145b9050919050565b600580546104b59061266e565b80601f01602080910402602001604051908101604052809291908181526020018280546104e19061266e565b801561052e5780601f106105035761010080835404028352916020019161052e565b820191906000526020600020905b81548152906001019060200180831161051157829003601f168201915b505050505081565b6060600280546105459061266e565b80601f01602080910402602001604051908101604052809291908181526020018280546105719061266e565b80156105be5780601f10610593576101008083540402835291602001916105be565b820191906000526020600020905b8154815290600101906020018083116105a157829003601f168201915b50505050509050919050565b60035481565b60076020528060005260406000206000915090508060000180546105f39061266e565b80601f016020809104026020016040519081016040528092919081815260200182805461061f9061266e565b801561066c5780601f106106415761010080835404028352916020019161066c565b820191906000526020600020905b81548152906001019060200180831161064f57829003601f168201915b5050505050908060010180546106819061266e565b80601f01602080910402602001604051908101604052809291908181526020018280546106ad9061266e565b80156106fa5780601f106106cf576101008083540402835291602001916106fa565b820191906000526020600020905b8154815290600101906020018083116106dd57829003601f168201915b50505050509080600201805461070f9061266e565b80601f016020809104026020016040519081016040528092919081815260200182805461073b9061266e565b80156107885780601f1061075d57610100808354040283529160200191610788565b820191906000526020600020905b81548152906001019060200180831161076b57829003601f168201915b50505050509080600301805461079d9061266e565b80601f01602080910402602001604051908101604052809291908181526020018280546107c99061266e565b80156108165780601f106107eb57610100808354040283529160200191610816565b820191906000526020600020905b8154815290600101906020018083116107f957829003601f168201915b5050505050905084565b8151835114610864576040517f08c379a000000000000000000000000000000000000000000000000000000000815260040161085b90612712565b60405180910390fd5b600073ffffffffffffffffffffffffffffffffffffffff168473ffffffffffffffffffffffffffffffffffffffff1614156108d4576040517f08c379a00000000000000000000000000000000000000000000000000000000081526004016108cb906127a4565b60405180910390fd5b6108dc6113dc565b73ffffffffffffffffffffffffffffffffffffffff168573ffffffffffffffffffffffffffffffffffffffff16148061092257506109218561091c6113dc565b610ef2565b5b610961576040517f08c379a000000000000000000000000000000000000000000000000000000000815260040161095890612836565b60405180910390fd5b600061096b6113dc565b905061097b8187878787876113e4565b60005b8451811015610b3557600085828151811061099c5761099b612856565b5b6020026020010151905060008583815181106109bb576109ba612856565b5b60200260200101519050600080600084815260200190815260200160002060008b73ffffffffffffffffffffffffffffffffffffffff1673ffffffffffffffffffffffffffffffffffffffff16815260200190815260200160002054905081811015610a5c576040517f08c379a0000000000000000000000000000000000000000000000000000000008152600401610a53906128f7565b60405180910390fd5b8181610a689190612946565b60008085815260200190815260200160002060008c73ffffffffffffffffffffffffffffffffffffffff1673ffffffffffffffffffffffffffffffffffffffff168152602001908152602001600020819055508160008085815260200190815260200160002060008b73ffffffffffffffffffffffffffffffffffffffff1673ffffffffffffffffffffffffffffffffffffffff1681526020019081526020016000206000828254610b1a919061297a565b9250508190555050505080610b2e906129d0565b905061097e565b508473ffffffffffffffffffffffffffffffffffffffff168673ffffffffffffffffffffffffffffffffffffffff168273ffffffffffffffffffffffffffffffffffffffff167f4a39dc06d4c0dbc64b70af90fd698a233a518aa5d07e595d983b8c0526c8f7fb8787604051610bac929190612a19565b60405180910390a4610bc28187878787876113ec565b505050505050565b60608151835114610c10576040517f08c379a0000000000000000000000000000000000000000000000000000000008152600401610c0790612ac2565b60405180910390fd5b6000835167ffffffffffffffff811115610c2d57610c2c611dd2565b5b604051908082528060200260200182016040528015610c5b5781602001602082028036833780820191505090505b50905060005b8451811015610cd857610ca8858281518110610c8057610c7f612856565b5b6020026020010151858381518110610c9b57610c9a612856565b5b602002602001015161030d565b828281518110610cbb57610cba612856565b5b60200260200101818152505080610cd1906129d0565b9050610c61565b508091505092915050565b60068054610cf09061266e565b80601f0160208091040260200160405190810160405280929190818152602001828054610d1c9061266e565b8015610d695780601f10610d3e57610100808354040283529160200191610d69565b820191906000526020600020905b815481529060010190602001808311610d4c57829003601f168201915b505050505081565b8173ffffffffffffffffffffffffffffffffffffffff16610d906113dc565b73ffffffffffffffffffffffffffffffffffffffff161415610de7576040517f08c379a0000000000000000000000000000000000000000000000000000000008152600401610dde90612b54565b60405180910390fd5b8060016000610df46113dc565b73ffffffffffffffffffffffffffffffffffffffff1673ffffffffffffffffffffffffffffffffffffffff16815260200190815260200160002060008473ffffffffffffffffffffffffffffffffffffffff1673ffffffffffffffffffffffffffffffffffffffff16815260200190815260200160002060006101000a81548160ff0219169083151502179055508173ffffffffffffffffffffffffffffffffffffffff16610ea16113dc565b73ffffffffffffffffffffffffffffffffffffffff167f17307eab39ab6107e8899845ad3d59bd9653f200f220920489ca2b5937696c3183604051610ee69190611c14565b60405180910390a35050565b6000600160008473ffffffffffffffffffffffffffffffffffffffff1673ffffffffffffffffffffffffffffffffffffffff16815260200190815260200160002060008373ffffffffffffffffffffffffffffffffffffffff1673ffffffffffffffffffffffffffffffffffffffff16815260200190815260200160002060009054906101000a900460ff16905092915050565b6000600160036000828254610f9b919061297a565b9250508190555060006003549050600060076000838152602001908152602001600020905086816000019080519060200190610fd89291906119bf565b5085816001019080519060200190610ff19291906119bf565b508481600201908051906020019061100a9291906119bf565b50838160030190805190602001906110239291906119bf565b5061103f33838a604051806020016040528060008152506115c4565b3373ffffffffffffffffffffffffffffffffffffffff167f4c209b5fc8ad50758f13e2e1088ba56a560dff690a1c6fef26394f4c03821c4f838a604051611087929190612b74565b60405180910390a260019250505095945050505050565b600073ffffffffffffffffffffffffffffffffffffffff168473ffffffffffffffffffffffffffffffffffffffff16141561110e576040517f08c379a0000000000000000000000000000000000000000000000000000000008152600401611105906127a4565b60405180910390fd5b6111166113dc565b73ffffffffffffffffffffffffffffffffffffffff168573ffffffffffffffffffffffffffffffffffffffff16148061115c575061115b856111566113dc565b610ef2565b5b61119b576040517f08c379a000000000000000000000000000000000000000000000000000000000815260040161119290612c0f565b60405180910390fd5b60006111a56113dc565b90506111c58187876111b68861175a565b6111bf8861175a565b876113e4565b600080600086815260200190815260200160002060008873ffffffffffffffffffffffffffffffffffffffff1673ffffffffffffffffffffffffffffffffffffffff1681526020019081526020016000205490508381101561125c576040517f08c379a0000000000000000000000000000000000000000000000000000000008152600401611253906128f7565b60405180910390fd5b83816112689190612946565b60008087815260200190815260200160002060008973ffffffffffffffffffffffffffffffffffffffff1673ffffffffffffffffffffffffffffffffffffffff168152602001908152602001600020819055508360008087815260200190815260200160002060008873ffffffffffffffffffffffffffffffffffffffff1673ffffffffffffffffffffffffffffffffffffffff168152602001908152602001600020600082825461131a919061297a565b925050819055508573ffffffffffffffffffffffffffffffffffffffff168773ffffffffffffffffffffffffffffffffffffffff168373ffffffffffffffffffffffffffffffffffffffff167fc3d58168c5ae7397731d063d5bbf3d657854427343f4c083240f7aacaa2d0f628888604051611397929190612b74565b60405180910390a46113ad8288888888886117d4565b50505050505050565b600460009054906101000a900473ffffffffffffffffffffffffffffffffffffffff1681565b600033905090565b505050505050565b61140b8473ffffffffffffffffffffffffffffffffffffffff166119ac565b156115bc578373ffffffffffffffffffffffffffffffffffffffff1663bc197c8187878686866040518663ffffffff1660e01b8152600401611451959493929190612c2f565b6020604051808303816000875af192505050801561148d57506040513d601f19601f8201168201806040525081019061148a9190612cac565b60015b61153357611499612ce6565b806308c379a014156114f657506114ae612d08565b806114b957506114f8565b806040517f08c379a00000000000000000000000000000000000000000000000000000000081526004016114ed9190611cc8565b60405180910390fd5b505b6040517f08c379a000000000000000000000000000000000000000000000000000000000815260040161152a90612e10565b60405180910390fd5b63bc197c8160e01b7bffffffffffffffffffffffffffffffffffffffffffffffffffffffff1916817bffffffffffffffffffffffffffffffffffffffffffffffffffffffff1916146115ba576040517f08c379a00000000000000000000000000000000000000000000000000000000081526004016115b190612ea2565b60405180910390fd5b505b505050505050565b600073ffffffffffffffffffffffffffffffffffffffff168473ffffffffffffffffffffffffffffffffffffffff161415611634576040517f08c379a000000000000000000000000000000000000000000000000000000000815260040161162b90612f34565b60405180910390fd5b600061163e6113dc565b905061165f816000876116508861175a565b6116598861175a565b876113e4565b8260008086815260200190815260200160002060008773ffffffffffffffffffffffffffffffffffffffff1673ffffffffffffffffffffffffffffffffffffffff16815260200190815260200160002060008282546116be919061297a565b925050819055508473ffffffffffffffffffffffffffffffffffffffff16600073ffffffffffffffffffffffffffffffffffffffff168273ffffffffffffffffffffffffffffffffffffffff167fc3d58168c5ae7397731d063d5bbf3d657854427343f4c083240f7aacaa2d0f62878760405161173c929190612b74565b60405180910390a4611753816000878787876117d4565b5050505050565b60606000600167ffffffffffffffff81111561177957611778611dd2565b5b6040519080825280602002602001820160405280156117a75781602001602082028036833780820191505090505b50905082816000815181106117bf576117be612856565b5b60200260200101818152505080915050919050565b6117f38473ffffffffffffffffffffffffffffffffffffffff166119ac565b156119a4578373ffffffffffffffffffffffffffffffffffffffff1663f23a6e6187878686866040518663ffffffff1660e01b8152600401611839959493929190612f54565b6020604051808303816000875af192505050801561187557506040513d601f19601f820116820180604052508101906118729190612cac565b60015b61191b57611881612ce6565b806308c379a014156118de5750611896612d08565b806118a157506118e0565b806040517f08c379a00000000000000000000000000000000000000000000000000000000081526004016118d59190611cc8565b60405180910390fd5b505b6040517f08c379a000000000000000000000000000000000000000000000000000000000815260040161191290612e10565b60405180910390fd5b63f23a6e6160e01b7bffffffffffffffffffffffffffffffffffffffffffffffffffffffff1916817bffffffffffffffffffffffffffffffffffffffffffffffffffffffff1916146119a2576040517f08c379a000000000000000000000000000000000000000000000000000000000815260040161199990612ea2565b60405180910390fd5b505b505050505050565b600080823b905060008111915050919050565b8280546119cb9061266e565b90600052602060002090601f0160209004810192826119ed5760008555611a34565b82601f10611a0657805160ff1916838001178555611a34565b82800160010185558215611a34579182015b82811115611a33578251825591602001919060010190611a18565b5b509050611a419190611a45565b5090565b5b80821115611a5e576000816000905550600101611a46565b5090565b6000604051905090565b600080fd5b600080fd5b600073ffffffffffffffffffffffffffffffffffffffff82169050919050565b6000611aa182611a76565b9050919050565b611ab181611a96565b8114611abc57600080fd5b50565b600081359050611ace81611aa8565b92915050565b6000819050919050565b611ae781611ad4565b8114611af257600080fd5b50565b600081359050611b0481611ade565b92915050565b60008060408385031215611b2157611b20611a6c565b5b6000611b2f85828601611abf565b9250506020611b4085828601611af5565b9150509250929050565b611b5381611ad4565b82525050565b6000602082019050611b6e6000830184611b4a565b92915050565b60007fffffffff0000000000000000000000000000000000000000000000000000000082169050919050565b611ba981611b74565b8114611bb457600080fd5b50565b600081359050611bc681611ba0565b92915050565b600060208284031215611be257611be1611a6c565b5b6000611bf084828501611bb7565b91505092915050565b60008115159050919050565b611c0e81611bf9565b82525050565b6000602082019050611c296000830184611c05565b92915050565b600081519050919050565b600082825260208201905092915050565b60005b83811015611c69578082015181840152602081019050611c4e565b83811115611c78576000848401525b50505050565b6000601f19601f8301169050919050565b6000611c9a82611c2f565b611ca48185611c3a565b9350611cb4818560208601611c4b565b611cbd81611c7e565b840191505092915050565b60006020820190508181036000830152611ce28184611c8f565b905092915050565b600060208284031215611d0057611cff611a6c565b5b6000611d0e84828501611af5565b91505092915050565b600081519050919050565b600082825260208201905092915050565b6000611d3e82611d17565b611d488185611d22565b9350611d58818560208601611c4b565b611d6181611c7e565b840191505092915050565b60006080820190508181036000830152611d868187611d33565b90508181036020830152611d9a8186611d33565b90508181036040830152611dae8185611d33565b90508181036060830152611dc28184611d33565b905095945050505050565b600080fd5b7f4e487b7100000000000000000000000000000000000000000000000000000000600052604160045260246000fd5b611e0a82611c7e565b810181811067ffffffffffffffff82111715611e2957611e28611dd2565b5b80604052505050565b6000611e3c611a62565b9050611e488282611e01565b919050565b600067ffffffffffffffff821115611e6857611e67611dd2565b5b602082029050602081019050919050565b600080fd5b6000611e91611e8c84611e4d565b611e32565b90508083825260208201905060208402830185811115611eb457611eb3611e79565b5b835b81811015611edd5780611ec98882611af5565b845260208401935050602081019050611eb6565b5050509392505050565b600082601f830112611efc57611efb611dcd565b5b8135611f0c848260208601611e7e565b91505092915050565b600080fd5b600067ffffffffffffffff821115611f3557611f34611dd2565b5b611f3e82611c7e565b9050602081019050919050565b82818337600083830152505050565b6000611f6d611f6884611f1a565b611e32565b905082815260208101848484011115611f8957611f88611f15565b5b611f94848285611f4b565b509392505050565b600082601f830112611fb157611fb0611dcd565b5b8135611fc1848260208601611f5a565b91505092915050565b600080600080600060a08688031215611fe657611fe5611a6c565b5b6000611ff488828901611abf565b955050602061200588828901611abf565b945050604086013567ffffffffffffffff81111561202657612025611a71565b5b61203288828901611ee7565b935050606086013567ffffffffffffffff81111561205357612052611a71565b5b61205f88828901611ee7565b925050608086013567ffffffffffffffff8111156120805761207f611a71565b5b61208c88828901611f9c565b9150509295509295909350565b600067ffffffffffffffff8211156120b4576120b3611dd2565b5b602082029050602081019050919050565b60006120d86120d384612099565b611e32565b905080838252602082019050602084028301858111156120fb576120fa611e79565b5b835b8181101561212457806121108882611abf565b8452602084019350506020810190506120fd565b5050509392505050565b600082601f83011261214357612142611dcd565b5b81356121538482602086016120c5565b91505092915050565b6000806040838503121561217357612172611a6c565b5b600083013567ffffffffffffffff81111561219157612190611a71565b5b61219d8582860161212e565b925050602083013567ffffffffffffffff8111156121be576121bd611a71565b5b6121ca85828601611ee7565b9150509250929050565b600081519050919050565b600082825260208201905092915050565b6000819050602082019050919050565b61220981611ad4565b82525050565b600061221b8383612200565b60208301905092915050565b6000602082019050919050565b600061223f826121d4565b61224981856121df565b9350612254836121f0565b8060005b8381101561228557815161226c888261220f565b975061227783612227565b925050600181019050612258565b5085935050505092915050565b600060208201905081810360008301526122ac8184612234565b905092915050565b6122bd81611bf9565b81146122c857600080fd5b50565b6000813590506122da816122b4565b92915050565b600080604083850312156122f7576122f6611a6c565b5b600061230585828601611abf565b9250506020612316858286016122cb565b9150509250929050565b6000806040838503121561233757612336611a6c565b5b600061234585828601611abf565b925050602061235685828601611abf565b9150509250929050565b600067ffffffffffffffff82111561237b5761237a611dd2565b5b61238482611c7e565b9050602081019050919050565b60006123a461239f84612360565b611e32565b9050828152602081018484840111156123c0576123bf611f15565b5b6123cb848285611f4b565b509392505050565b600082601f8301126123e8576123e7611dcd565b5b81356123f8848260208601612391565b91505092915050565b600080600080600060a0868803121561241d5761241c611a6c565b5b600061242b88828901611af5565b955050602086013567ffffffffffffffff81111561244c5761244b611a71565b5b612458888289016123d3565b945050604086013567ffffffffffffffff81111561247957612478611a71565b5b612485888289016123d3565b935050606086013567ffffffffffffffff8111156124a6576124a5611a71565b5b6124b2888289016123d3565b925050608086013567ffffffffffffffff8111156124d3576124d2611a71565b5b6124df888289016123d3565b9150509295509295909350565b600080600080600060a0868803121561250857612507611a6c565b5b600061251688828901611abf565b955050602061252788828901611abf565b945050604061253888828901611af5565b935050606061254988828901611af5565b925050608086013567ffffffffffffffff81111561256a57612569611a71565b5b61257688828901611f9c565b9150509295509295909350565b61258c81611a96565b82525050565b60006020820190506125a76000830184612583565b92915050565b7f455243313135353a2062616c616e636520717565727920666f7220746865207a60008201527f65726f2061646472657373000000000000000000000000000000000000000000602082015250565b6000612609602b83611c3a565b9150612614826125ad565b604082019050919050565b60006020820190508181036000830152612638816125fc565b9050919050565b7f4e487b7100000000000000000000000000000000000000000000000000000000600052602260045260246000fd5b6000600282049050600182168061268657607f821691505b6020821081141561269a5761269961263f565b5b50919050565b7f455243313135353a2069647320616e6420616d6f756e7473206c656e6774682060008201527f6d69736d61746368000000000000000000000000000000000000000000000000602082015250565b60006126fc602883611c3a565b9150612707826126a0565b604082019050919050565b6000602082019050818103600083015261272b816126ef565b9050919050565b7f455243313135353a207472616e7366657220746f20746865207a65726f20616460008201527f6472657373000000000000000000000000000000000000000000000000000000602082015250565b600061278e602583611c3a565b915061279982612732565b604082019050919050565b600060208201905081810360008301526127bd81612781565b9050919050565b7f455243313135353a207472616e736665722063616c6c6572206973206e6f742060008201527f6f776e6572206e6f7220617070726f7665640000000000000000000000000000602082015250565b6000612820603283611c3a565b915061282b826127c4565b604082019050919050565b6000602082019050818103600083015261284f81612813565b9050919050565b7f4e487b7100000000000000000000000000000000000000000000000000000000600052603260045260246000fd5b7f455243313135353a20696e73756666696369656e742062616c616e636520666f60008201527f72207472616e7366657200000000000000000000000000000000000000000000602082015250565b60006128e1602a83611c3a565b91506128ec82612885565b604082019050919050565b60006020820190508181036000830152612910816128d4565b9050919050565b7f4e487b7100000000000000000000000000000000000000000000000000000000600052601160045260246000fd5b600061295182611ad4565b915061295c83611ad4565b92508282101561296f5761296e612917565b5b828203905092915050565b600061298582611ad4565b915061299083611ad4565b9250827fffffffffffffffffffffffffffffffffffffffffffffffffffffffffffffffff038211156129c5576129c4612917565b5b828201905092915050565b60006129db82611ad4565b91507fffffffffffffffffffffffffffffffffffffffffffffffffffffffffffffffff821415612a0e57612a0d612917565b5b600182019050919050565b60006040820190508181036000830152612a338185612234565b90508181036020830152612a478184612234565b90509392505050565b7f455243313135353a206163636f756e747320616e6420696473206c656e67746860008201527f206d69736d617463680000000000000000000000000000000000000000000000602082015250565b6000612aac602983611c3a565b9150612ab782612a50565b604082019050919050565b60006020820190508181036000830152612adb81612a9f565b9050919050565b7f455243313135353a2073657474696e6720617070726f76616c2073746174757360008201527f20666f722073656c660000000000000000000000000000000000000000000000602082015250565b6000612b3e602983611c3a565b9150612b4982612ae2565b604082019050919050565b60006020820190508181036000830152612b6d81612b31565b9050919050565b6000604082019050612b896000830185611b4a565b612b966020830184611b4a565b9392505050565b7f455243313135353a2063616c6c6572206973206e6f74206f776e6572206e6f7260008201527f20617070726f7665640000000000000000000000000000000000000000000000602082015250565b6000612bf9602983611c3a565b9150612c0482612b9d565b604082019050919050565b60006020820190508181036000830152612c2881612bec565b9050919050565b600060a082019050612c446000830188612583565b612c516020830187612583565b8181036040830152612c638186612234565b90508181036060830152612c778185612234565b90508181036080830152612c8b8184611d33565b90509695505050505050565b600081519050612ca681611ba0565b92915050565b600060208284031215612cc257612cc1611a6c565b5b6000612cd084828501612c97565b91505092915050565b60008160e01c9050919050565b600060033d1115612d055760046000803e612d02600051612cd9565b90505b90565b600060443d1015612d1857612d9b565b612d20611a62565b60043d036004823e80513d602482011167ffffffffffffffff82111715612d48575050612d9b565b808201805167ffffffffffffffff811115612d665750505050612d9b565b80602083010160043d038501811115612d83575050505050612d9b565b612d9282602001850186611e01565b82955050505050505b90565b7f455243313135353a207472616e7366657220746f206e6f6e204552433131353560008201527f526563656976657220696d706c656d656e746572000000000000000000000000602082015250565b6000612dfa603483611c3a565b9150612e0582612d9e565b604082019050919050565b60006020820190508181036000830152612e2981612ded565b9050919050565b7f455243313135353a204552433131353552656365697665722072656a6563746560008201527f6420746f6b656e73000000000000000000000000000000000000000000000000602082015250565b6000612e8c602883611c3a565b9150612e9782612e30565b604082019050919050565b60006020820190508181036000830152612ebb81612e7f565b9050919050565b7f455243313135353a206d696e7420746f20746865207a65726f2061646472657360008201527f7300000000000000000000000000000000000000000000000000000000000000602082015250565b6000612f1e602183611c3a565b9150612f2982612ec2565b604082019050919050565b60006020820190508181036000830152612f4d81612f11565b9050919050565b600060a082019050612f696000830188612583565b612f766020830187612583565b612f836040830186611b4a565b612f906060830185611b4a565b8181036080830152612fa28184611d33565b9050969550505050505056fea2646970667358221220a0671d1cf5d7ae178772ca3182f1c91d59ea00653ea5997fdf946f0f4104a0f364736f6c634300080c0033",
  "immutableReferences": {},
  "source": "// SPDX-License-Identifier: UNLICENSED\n\npragma solidity <=0.8.12;\n\nimport \"./Address.sol\";\n\ninterface IERC165 {\n    function supportsInterface(bytes4 interfaceId) external view returns (bool);\n}\n\ninterface IRoseApe1155 is IERC165 {\n    event TransferSingle(address indexed operator, address indexed from, address indexed to, uint256 id, uint256 value);\n    event TransferBatch(address indexed operator, address indexed from, address indexed to, uint256[] ids, uint256[] values);\n    event ApprovalForAll(address indexed account, address indexed operator, bool approved);\n    event URI(string value, uint256 indexed id);\n    function uri(uint256) external view returns(string memory);\n    function balanceOf(address account, uint256 id) external view returns (uint256);\n    function balanceOfBatch(address[] calldata accounts, uint256[] calldata ids) external view returns (uint256[] memory);\n    function setApprovalForAll(address operator, bool approved) external;\n    function isApprovedForAll(address account, address operator) external view returns (bool);\n    function safeTransferFrom(address from, address to, uint256 id, uint256 amount, bytes calldata data) external;\n    function safeBatchTransferFrom(address from, address to, uint256[] calldata ids, uint256[] calldata amounts, bytes calldata data) external;\n}\n\ninterface IERC1155MetadataURI is IRoseApe1155 {\n    function uri(uint256 id) external override view returns (string memory);\n}\n\ninterface IERC1155Receiver is IERC165 {\n\n    function onERC1155Received(\n        address operator,\n        address from,\n        uint256 id,\n        uint256 value,\n        bytes calldata data\n    )\n        external\n        returns(bytes4);\n\n    function onERC1155BatchReceived(\n        address operator,\n        address from,\n        uint256[] calldata ids,\n        uint256[] calldata values,\n        bytes calldata data\n    )\n        external\n        returns(bytes4);\n}\n\nabstract contract Context {\n    function _msgSender() internal view virtual returns (address) {\n        return msg.sender;\n    }\n\n    function _msgData() internal view virtual returns (bytes calldata) {\n        this; // silence state mutability warning without generating bytecode - see https://github.com/ethereum/solidity/issues/2691\n        return msg.data;\n    }\n}\n\ncontract RoseApe1155 is IRoseApe1155, Context {\n    using Address for address;\n\n    // Mapping tokenId to address to balance\n    mapping(uint256 => mapping(address => uint256)) private _balances;\n\n    // Operator Approvals\n    mapping(address => mapping(address => bool)) private _operatorApprovals;\n\n    // Used for ID Substitution\n    string private _uri;\n\n    constructor(string memory uri_){\n        _setURI(uri_);\n    }\n\n    function _setURI(string memory newuri) internal virtual {\n        _uri = newuri;\n    }\n\n    function uri(uint256) public view virtual override returns (string memory) {\n        return _uri;\n    }\n\n    function balanceOf(address account, uint256 id) public view virtual override returns (uint256) {\n        require(account != address(0), \"ERC1155: balance query for the zero address\");\n        return _balances[id][account];\n    }\n\n    function balanceOfBatch(\n        address[] memory accounts,\n        uint256[] memory ids\n    )\n        public\n        view\n        virtual\n        override\n        returns (uint256[] memory)\n    {\n        require(accounts.length == ids.length, \"ERC1155: accounts and ids length mismatch\");\n\n        uint256[] memory batchBalances = new uint256[](accounts.length);\n\n        for (uint256 i = 0; i < accounts.length; ++i) {\n            batchBalances[i] = balanceOf(accounts[i], ids[i]);\n        }\n\n        return batchBalances;\n    }\n\n    function setApprovalForAll(address operator, bool approved) public virtual override {\n        require(_msgSender() != operator, \"ERC1155: setting approval status for self\");\n\n        _operatorApprovals[_msgSender()][operator] = approved;\n        emit ApprovalForAll(_msgSender(), operator, approved);\n    }\n\n    function isApprovedForAll(address account, address operator) public view virtual override returns (bool) {\n        return _operatorApprovals[account][operator];\n    }\n\n    function safeTransferFrom(\n        address from,\n        address to,\n        uint256 id,\n        uint256 amount,\n        bytes memory data\n    )\n        public\n        virtual\n        override\n    {\n        require(to != address(0), \"ERC1155: transfer to the zero address\");\n        require(\n            from == _msgSender() || isApprovedForAll(from, _msgSender()),\n            \"ERC1155: caller is not owner nor approved\"\n        );\n\n        address operator = _msgSender();\n\n        _beforeTokenTransfer(operator, from, to, _asSingletonArray(id), _asSingletonArray(amount), data);\n\n        uint256 fromBalance = _balances[id][from];\n        require(fromBalance >= amount, \"ERC1155: insufficient balance for transfer\");\n        _balances[id][from] = fromBalance - amount;\n        _balances[id][to] += amount;\n\n        emit TransferSingle(operator, from, to, id, amount);\n\n        _doSafeTransferAcceptanceCheck(operator, from, to, id, amount, data);\n    }\n\n    function safeBatchTransferFrom(\n        address from,\n        address to,\n        uint256[] memory ids,\n        uint256[] memory amounts,\n        bytes memory data\n    )\n        public\n        virtual\n        override\n    {\n        require(ids.length == amounts.length, \"ERC1155: ids and amounts length mismatch\");\n        require(to != address(0), \"ERC1155: transfer to the zero address\");\n        require(\n            from == _msgSender() || isApprovedForAll(from, _msgSender()),\n            \"ERC1155: transfer caller is not owner nor approved\"\n        );\n\n        address operator = _msgSender();\n\n        _beforeTokenTransfer(operator, from, to, ids, amounts, data);\n\n        for (uint256 i = 0; i < ids.length; ++i) {\n            uint256 id = ids[i];\n            uint256 amount = amounts[i];\n\n            uint256 fromBalance = _balances[id][from];\n            require(fromBalance >= amount, \"ERC1155: insufficient balance for transfer\");\n            _balances[id][from] = fromBalance - amount;\n            _balances[id][to] += amount;\n        }\n\n        emit TransferBatch(operator, from, to, ids, amounts);\n\n        _doSafeBatchTransferAcceptanceCheck(operator, from, to, ids, amounts, data);\n    }\n\n    function _mint(\n        address account, \n        uint256 id, \n        uint256 amount, \n        bytes memory data\n    ) internal virtual {\n        require(account != address(0), \"ERC1155: mint to the zero address\");\n\n        address operator = _msgSender();\n\n        _beforeTokenTransfer(operator, address(0), account, _asSingletonArray(id), _asSingletonArray(amount), data);\n\n        _balances[id][account] += amount;\n        emit TransferSingle(operator, address(0), account, id, amount);\n\n        _doSafeTransferAcceptanceCheck(operator, address(0), account, id, amount, data);\n    }\n\n    function _mintBatch(address to, uint256[] memory ids, uint256[] memory amounts, bytes memory data) internal virtual {\n        require(to != address(0), \"ERC1155: mint to the zero address\");\n        require(ids.length == amounts.length, \"ERC1155: ids and amounts length mismatch\");\n\n        address operator = _msgSender();\n\n        _beforeTokenTransfer(operator, address(0), to, ids, amounts, data);\n\n        for (uint i = 0; i < ids.length; i++) {\n            _balances[ids[i]][to] += amounts[i];\n        }\n\n        emit TransferBatch(operator, address(0), to, ids, amounts);\n\n        _doSafeBatchTransferAcceptanceCheck(operator, address(0), to, ids, amounts, data);\n    }\n\n    function _burn(address account, uint256 id, uint256 amount) internal virtual {\n        require(account != address(0), \"ERC1155: burn from the zero address\");\n\n        address operator = _msgSender();\n\n        _beforeTokenTransfer(operator, account, address(0), _asSingletonArray(id), _asSingletonArray(amount), \"\");\n\n        uint256 accountBalance = _balances[id][account];\n        require(accountBalance >= amount, \"ERC1155: burn amount exceeds balance\");\n        _balances[id][account] = accountBalance - amount;\n\n        emit TransferSingle(operator, account, address(0), id, amount);\n    }\n\n    function _burnBatch(address account, uint256[] memory ids, uint256[] memory amounts) internal virtual {\n        require(account != address(0), \"ERC1155: burn from the zero address\");\n        require(ids.length == amounts.length, \"ERC1155: ids and amounts length mismatch\");\n\n        address operator = _msgSender();\n\n        _beforeTokenTransfer(operator, account, address(0), ids, amounts, \"\");\n\n        for (uint i = 0; i < ids.length; i++) {\n            uint256 id = ids[i];\n            uint256 amount = amounts[i];\n\n            uint256 accountBalance = _balances[id][account];\n            require(accountBalance >= amount, \"ERC1155: burn amount exceeds balance\");\n            _balances[id][account] = accountBalance - amount;\n        }\n\n        emit TransferBatch(operator, account, address(0), ids, amounts);\n    }\n\n    function _beforeTokenTransfer(\n        address operator,\n        address from,\n        address to,\n        uint256[] memory ids,\n        uint256[] memory amounts,\n        bytes memory data\n    )\n        internal\n        virtual\n    { }\n\n    function _doSafeTransferAcceptanceCheck(\n        address operator,\n        address from,\n        address to,\n        uint256 id,\n        uint256 amount,\n        bytes memory data\n    )\n        private\n    {\n        if (to.isContract()) {\n            try IERC1155Receiver(to).onERC1155Received(operator, from, id, amount, data) returns (bytes4 response) {\n                if (response != IERC1155Receiver(to).onERC1155Received.selector) {\n                    revert(\"ERC1155: ERC1155Receiver rejected tokens\");\n                }\n            } catch Error(string memory reason) {\n                revert(reason);\n            } catch {\n                revert(\"ERC1155: transfer to non ERC1155Receiver implementer\");\n            }\n        }\n    }\n\n    function _doSafeBatchTransferAcceptanceCheck(\n        address operator,\n        address from,\n        address to,\n        uint256[] memory ids,\n        uint256[] memory amounts,\n        bytes memory data\n    )\n        private\n    {\n        if (to.isContract()) {\n            try IERC1155Receiver(to).onERC1155BatchReceived(operator, from, ids, amounts, data) returns (bytes4 response) {\n                if (response != IERC1155Receiver(to).onERC1155BatchReceived.selector) {\n                    revert(\"ERC1155: ERC1155Receiver rejected tokens\");\n                }\n            } catch Error(string memory reason) {\n                revert(reason);\n            } catch {\n                revert(\"ERC1155: transfer to non ERC1155Receiver implementer\");\n            }\n        }\n    }\n\n    function _asSingletonArray(uint256 element) private pure returns (uint256[] memory) {\n        uint256[] memory array = new uint256[](1);\n        array[0] = element;\n\n        return array;\n    }\n\n    function supportsInterface(bytes4 interfaceId) public view virtual override(IERC165) returns (bool) {\n        return interfaceId == type(IERC165).interfaceId\n            || interfaceId == type(IERC1155MetadataURI).interfaceId;\n    }\n\n}\n\n\ncontract RoseApeERC1155 is RoseApe1155 {\n\n    uint256 public totalSupply = 0;\n    address public admin;\n\n    string public name;\n    string public symbol;\n\n    struct Info {\n      bytes name;\n      bytes description;\n      bytes logo;\n      bytes additionalInfo;\n    }\n\n    mapping(uint256 => Info) public info;\n\n    event Mint(address indexed to, uint256 tokenId , uint256 amount);\n\n    constructor(string memory name_, string memory symbol_) public RoseApe1155(\"https://ipfs.io/ipfs/{id}.json\") {\n        admin = msg.sender;\n        name = name_;\n        symbol = symbol_;\n    }\n\n    function mint(\n        uint256 supply,\n        string memory name_,\n        string memory description_,\n        string memory logo_,\n        string memory additionalInfo_\n    ) public virtual returns(bool){\n        totalSupply += 1;\n        uint256 tokenId = totalSupply;\n        Info storage i = info[tokenId];\n        i.name = bytes(name_);\n        i.description = bytes(description_);\n        i.logo = bytes(logo_);\n        i.additionalInfo = bytes(additionalInfo_);\n        _mint(msg.sender, tokenId, supply, \"\");\n        emit Mint(msg.sender, tokenId, supply);\n        return true;\n    }\n\n}",
  "sourcePath": "/Users/alvinreyes/Projects/roseproject/roseapes-nft-contracts/contracts/RoseApeERC1155.sol",
  "compiler": {
    "name": "solc",
    "version": "0.8.12+commit.f00d7308.Emscripten.clang"
  },
  "schemaVersion": "3.4.6",
  "updatedAt": "2022-03-17T04:57:31.957Z",
  "networkType": "ethereum",
  "devdoc": {
    "kind": "dev",
    "methods": {},
    "version": 1
  },
  "userdoc": {
    "kind": "user",
    "methods": {},
    "version": 1
  }
}