{
  "contractName": "RoseApe721_V2",
  "abi": [
    {
      "inputs": [
        {
          "internalType": "string",
          "name": "name_",
          "type": "string"
        },
        {
          "internalType": "string",
          "name": "symbol_",
          "type": "string"
        }
      ],
      "stateMutability": "nonpayable",
      "type": "constructor"
    },
    {
      "anonymous": false,
      "inputs": [
        {
          "indexed": true,
          "internalType": "address",
          "name": "owner",
          "type": "address"
        },
        {
          "indexed": true,
          "internalType": "address",
          "name": "approved",
          "type": "address"
        },
        {
          "indexed": true,
          "internalType": "uint256",
          "name": "tokenId",
          "type": "uint256"
        }
      ],
      "name": "Approval",
      "type": "event"
    },
    {
      "anonymous": false,
      "inputs": [
        {
          "indexed": true,
          "internalType": "address",
          "name": "owner",
          "type": "address"
        },
        {
          "indexed": true,
          "internalType": "address",
          "name": "operator",
          "type": "address"
        },
        {
          "indexed": false,
          "internalType": "bool",
          "name": "approved",
          "type": "bool"
        }
      ],
      "name": "ApprovalForAll",
      "type": "event"
    },
    {
      "anonymous": false,
      "inputs": [
        {
          "indexed": true,
          "internalType": "address",
          "name": "from",
          "type": "address"
        },
        {
          "indexed": true,
          "internalType": "address",
          "name": "to",
          "type": "address"
        },
        {
          "indexed": true,
          "internalType": "uint256",
          "name": "tokenId",
          "type": "uint256"
        }
      ],
      "name": "Transfer",
      "type": "event"
    },
    {
      "inputs": [],
      "name": "_maxSupply",
      "outputs": [
        {
          "internalType": "uint256",
          "name": "",
          "type": "uint256"
        }
      ],
      "stateMutability": "view",
      "type": "function",
      "constant": true
    },
    {
      "inputs": [
        {
          "internalType": "address",
          "name": "to",
          "type": "address"
        },
        {
          "internalType": "uint256",
          "name": "tokenId",
          "type": "uint256"
        }
      ],
      "name": "approve",
      "outputs": [],
      "stateMutability": "nonpayable",
      "type": "function"
    },
    {
      "inputs": [
        {
          "internalType": "address",
          "name": "owner",
          "type": "address"
        }
      ],
      "name": "balanceOf",
      "outputs": [
        {
          "internalType": "uint256",
          "name": "",
          "type": "uint256"
        }
      ],
      "stateMutability": "view",
      "type": "function",
      "constant": true
    },
    {
      "inputs": [
        {
          "internalType": "uint256",
          "name": "tokenId",
          "type": "uint256"
        }
      ],
      "name": "getApproved",
      "outputs": [
        {
          "internalType": "address",
          "name": "",
          "type": "address"
        }
      ],
      "stateMutability": "view",
      "type": "function",
      "constant": true
    },
    {
      "inputs": [
        {
          "internalType": "address",
          "name": "owner",
          "type": "address"
        },
        {
          "internalType": "address",
          "name": "operator",
          "type": "address"
        }
      ],
      "name": "isApprovedForAll",
      "outputs": [
        {
          "internalType": "bool",
          "name": "",
          "type": "bool"
        }
      ],
      "stateMutability": "view",
      "type": "function",
      "constant": true
    },
    {
      "inputs": [],
      "name": "name",
      "outputs": [
        {
          "internalType": "string",
          "name": "",
          "type": "string"
        }
      ],
      "stateMutability": "view",
      "type": "function",
      "constant": true
    },
    {
      "inputs": [
        {
          "internalType": "uint256",
          "name": "tokenId",
          "type": "uint256"
        }
      ],
      "name": "ownerOf",
      "outputs": [
        {
          "internalType": "address",
          "name": "",
          "type": "address"
        }
      ],
      "stateMutability": "view",
      "type": "function",
      "constant": true
    },
    {
      "inputs": [
        {
          "internalType": "address",
          "name": "from",
          "type": "address"
        },
        {
          "internalType": "address",
          "name": "to",
          "type": "address"
        },
        {
          "internalType": "uint256",
          "name": "tokenId",
          "type": "uint256"
        }
      ],
      "name": "safeTransferFrom",
      "outputs": [],
      "stateMutability": "nonpayable",
      "type": "function"
    },
    {
      "inputs": [
        {
          "internalType": "address",
          "name": "from",
          "type": "address"
        },
        {
          "internalType": "address",
          "name": "to",
          "type": "address"
        },
        {
          "internalType": "uint256",
          "name": "tokenId",
          "type": "uint256"
        },
        {
          "internalType": "bytes",
          "name": "_data",
          "type": "bytes"
        }
      ],
      "name": "safeTransferFrom",
      "outputs": [],
      "stateMutability": "nonpayable",
      "type": "function"
    },
    {
      "inputs": [
        {
          "internalType": "address",
          "name": "operator",
          "type": "address"
        },
        {
          "internalType": "bool",
          "name": "approved",
          "type": "bool"
        }
      ],
      "name": "setApprovalForAll",
      "outputs": [],
      "stateMutability": "nonpayable",
      "type": "function"
    },
    {
      "inputs": [
        {
          "internalType": "bytes4",
          "name": "interfaceId",
          "type": "bytes4"
        }
      ],
      "name": "supportsInterface",
      "outputs": [
        {
          "internalType": "bool",
          "name": "",
          "type": "bool"
        }
      ],
      "stateMutability": "view",
      "type": "function",
      "constant": true
    },
    {
      "inputs": [],
      "name": "symbol",
      "outputs": [
        {
          "internalType": "string",
          "name": "",
          "type": "string"
        }
      ],
      "stateMutability": "view",
      "type": "function",
      "constant": true
    },
    {
      "inputs": [
        {
          "internalType": "uint256",
          "name": "tokenId",
          "type": "uint256"
        }
      ],
      "name": "tokenURI",
      "outputs": [
        {
          "internalType": "string",
          "name": "",
          "type": "string"
        }
      ],
      "stateMutability": "view",
      "type": "function",
      "constant": true
    },
    {
      "inputs": [
        {
          "internalType": "address",
          "name": "from",
          "type": "address"
        },
        {
          "internalType": "address",
          "name": "to",
          "type": "address"
        },
        {
          "internalType": "uint256",
          "name": "tokenId",
          "type": "uint256"
        }
      ],
      "name": "transferFrom",
      "outputs": [],
      "stateMutability": "nonpayable",
      "type": "function"
    },
    {
      "inputs": [
        {
          "internalType": "address",
          "name": "player",
          "type": "address"
        },
        {
          "internalType": "string",
          "name": "tokenURI",
          "type": "string"
        }
      ],
      "name": "awardItem",
      "outputs": [
        {
          "internalType": "uint256",
          "name": "",
          "type": "uint256"
        }
      ],
      "stateMutability": "nonpayable",
      "type": "function"
    }
  ],
  "bytecode": "0x6080604052612710600a553480156200001757600080fd5b506040516200304f3803806200304f83398181016040528101906200003d919062000364565b6040518060400160405280600881526020017f47616d654974656d0000000000000000000000000000000000000000000000008152506040518060400160405280600381526020017f49544d00000000000000000000000000000000000000000000000000000000008152508160009080519060200190620000c192919062000117565b508060019080519060200190620000da92919062000117565b5050508160089080519060200190620000f592919062000117565b5080600990805190602001906200010e92919062000117565b5050506200044e565b828054620001259062000418565b90600052602060002090601f01602090048101928262000149576000855562000195565b82601f106200016457805160ff191683800117855562000195565b8280016001018555821562000195579182015b828111156200019457825182559160200191906001019062000177565b5b509050620001a49190620001a8565b5090565b5b80821115620001c3576000816000905550600101620001a9565b5090565b6000604051905090565b600080fd5b600080fd5b600080fd5b600080fd5b6000601f19601f8301169050919050565b7f4e487b7100000000000000000000000000000000000000000000000000000000600052604160045260246000fd5b6200023082620001e5565b810181811067ffffffffffffffff82111715620002525762000251620001f6565b5b80604052505050565b600062000267620001c7565b905062000275828262000225565b919050565b600067ffffffffffffffff821115620002985762000297620001f6565b5b620002a382620001e5565b9050602081019050919050565b60005b83811015620002d0578082015181840152602081019050620002b3565b83811115620002e0576000848401525b50505050565b6000620002fd620002f7846200027a565b6200025b565b9050828152602081018484840111156200031c576200031b620001e0565b5b62000329848285620002b0565b509392505050565b600082601f830112620003495762000348620001db565b5b81516200035b848260208601620002e6565b91505092915050565b600080604083850312156200037e576200037d620001d1565b5b600083015167ffffffffffffffff8111156200039f576200039e620001d6565b5b620003ad8582860162000331565b925050602083015167ffffffffffffffff811115620003d157620003d0620001d6565b5b620003df8582860162000331565b9150509250929050565b7f4e487b7100000000000000000000000000000000000000000000000000000000600052602260045260246000fd5b600060028204905060018216806200043157607f821691505b60208210811415620004485762000447620003e9565b5b50919050565b612bf1806200045e6000396000f3fe608060405234801561001057600080fd5b50600436106100f55760003560e01c80636352211e11610097578063b88d4fde11610066578063b88d4fde14610284578063c87b56dd146102a0578063cf378343146102d0578063e985e9c514610300576100f5565b80636352211e146101ea57806370a082311461021a57806395d89b411461024a578063a22cb46514610268576100f5565b8063095ea7b3116100d3578063095ea7b31461017857806322f4596f1461019457806323b872dd146101b257806342842e0e146101ce576100f5565b806301ffc9a7146100fa57806306fdde031461012a578063081812fc14610148575b600080fd5b610114600480360381019061010f9190611953565b610330565b604051610121919061199b565b60405180910390f35b610132610412565b60405161013f9190611a4f565b60405180910390f35b610162600480360381019061015d9190611aa7565b6104a4565b60405161016f9190611b15565b60405180910390f35b610192600480360381019061018d9190611b5c565b610529565b005b61019c610641565b6040516101a99190611bab565b60405180910390f35b6101cc60048036038101906101c79190611bc6565b610647565b005b6101e860048036038101906101e39190611bc6565b6106a7565b005b61020460048036038101906101ff9190611aa7565b6106c7565b6040516102119190611b15565b60405180910390f35b610234600480360381019061022f9190611c19565b610779565b6040516102419190611bab565b60405180910390f35b610252610831565b60405161025f9190611a4f565b60405180910390f35b610282600480360381019061027d9190611c72565b6108c3565b005b61029e60048036038101906102999190611de7565b6108d9565b005b6102ba60048036038101906102b59190611aa7565b61093b565b6040516102c79190611a4f565b60405180910390f35b6102ea60048036038101906102e59190611f0b565b610a8d565b6040516102f79190611bab565b60405180910390f35b61031a60048036038101906103159190611f67565b610ac5565b604051610327919061199b565b60405180910390f35b60007f80ac58cd000000000000000000000000000000000000000000000000000000007bffffffffffffffffffffffffffffffffffffffffffffffffffffffff1916827bffffffffffffffffffffffffffffffffffffffffffffffffffffffff191614806103fb57507f5b5e139f000000000000000000000000000000000000000000000000000000007bffffffffffffffffffffffffffffffffffffffffffffffffffffffff1916827bffffffffffffffffffffffffffffffffffffffffffffffffffffffff1916145b8061040b575061040a82610b59565b5b9050919050565b60606000805461042190611fd6565b80601f016020809104026020016040519081016040528092919081815260200182805461044d90611fd6565b801561049a5780601f1061046f5761010080835404028352916020019161049a565b820191906000526020600020905b81548152906001019060200180831161047d57829003601f168201915b5050505050905090565b60006104af82610bc3565b6104ee576040517f08c379a00000000000000000000000000000000000000000000000000000000081526004016104e59061207a565b60405180910390fd5b6004600083815260200190815260200160002060009054906101000a900473ffffffffffffffffffffffffffffffffffffffff169050919050565b6000610534826106c7565b90508073ffffffffffffffffffffffffffffffffffffffff168373ffffffffffffffffffffffffffffffffffffffff1614156105a5576040517f08c379a000000000000000000000000000000000000000000000000000000000815260040161059c9061210c565b60405180910390fd5b8073ffffffffffffffffffffffffffffffffffffffff166105c4610c2f565b73ffffffffffffffffffffffffffffffffffffffff1614806105f357506105f2816105ed610c2f565b610ac5565b5b610632576040517f08c379a00000000000000000000000000000000000000000000000000000000081526004016106299061219e565b60405180910390fd5b61063c8383610c37565b505050565b600a5481565b610658610652610c2f565b82610cf0565b610697576040517f08c379a000000000000000000000000000000000000000000000000000000000815260040161068e90612230565b60405180910390fd5b6106a2838383610dce565b505050565b6106c2838383604051806020016040528060008152506108d9565b505050565b6000806002600084815260200190815260200160002060009054906101000a900473ffffffffffffffffffffffffffffffffffffffff169050600073ffffffffffffffffffffffffffffffffffffffff168173ffffffffffffffffffffffffffffffffffffffff161415610770576040517f08c379a0000000000000000000000000000000000000000000000000000000008152600401610767906122c2565b60405180910390fd5b80915050919050565b60008073ffffffffffffffffffffffffffffffffffffffff168273ffffffffffffffffffffffffffffffffffffffff1614156107ea576040517f08c379a00000000000000000000000000000000000000000000000000000000081526004016107e190612354565b60405180910390fd5b600360008373ffffffffffffffffffffffffffffffffffffffff1673ffffffffffffffffffffffffffffffffffffffff168152602001908152602001600020549050919050565b60606001805461084090611fd6565b80601f016020809104026020016040519081016040528092919081815260200182805461086c90611fd6565b80156108b95780601f1061088e576101008083540402835291602001916108b9565b820191906000526020600020905b81548152906001019060200180831161089c57829003601f168201915b5050505050905090565b6108d56108ce610c2f565b8383611035565b5050565b6108ea6108e4610c2f565b83610cf0565b610929576040517f08c379a000000000000000000000000000000000000000000000000000000000815260040161092090612230565b60405180910390fd5b610935848484846111a2565b50505050565b606061094682610bc3565b610985576040517f08c379a000000000000000000000000000000000000000000000000000000000815260040161097c906123e6565b60405180910390fd5b60006006600084815260200190815260200160002080546109a590611fd6565b80601f01602080910402602001604051908101604052809291908181526020018280546109d190611fd6565b8015610a1e5780601f106109f357610100808354040283529160200191610a1e565b820191906000526020600020905b815481529060010190602001808311610a0157829003601f168201915b505050505090506000610a2f6111fe565b9050600081511415610a45578192505050610a88565b600082511115610a7a578082604051602001610a62929190612442565b60405160208183030381529060405292505050610a88565b610a8384611215565b925050505b919050565b6000610a9960076112bc565b6000610aa560076112d2565b9050610ab184826112e0565b610abb81846114ba565b8091505092915050565b6000600560008473ffffffffffffffffffffffffffffffffffffffff1673ffffffffffffffffffffffffffffffffffffffff16815260200190815260200160002060008373ffffffffffffffffffffffffffffffffffffffff1673ffffffffffffffffffffffffffffffffffffffff16815260200190815260200160002060009054906101000a900460ff16905092915050565b60007f01ffc9a7000000000000000000000000000000000000000000000000000000007bffffffffffffffffffffffffffffffffffffffffffffffffffffffff1916827bffffffffffffffffffffffffffffffffffffffffffffffffffffffff1916149050919050565b60008073ffffffffffffffffffffffffffffffffffffffff166002600084815260200190815260200160002060009054906101000a900473ffffffffffffffffffffffffffffffffffffffff1673ffffffffffffffffffffffffffffffffffffffff1614159050919050565b600033905090565b816004600083815260200190815260200160002060006101000a81548173ffffffffffffffffffffffffffffffffffffffff021916908373ffffffffffffffffffffffffffffffffffffffff160217905550808273ffffffffffffffffffffffffffffffffffffffff16610caa836106c7565b73ffffffffffffffffffffffffffffffffffffffff167f8c5be1e5ebec7d5bd14f71427d1e84f3dd0314c0f7b2291e5b200ac8c7c3b92560405160405180910390a45050565b6000610cfb82610bc3565b610d3a576040517f08c379a0000000000000000000000000000000000000000000000000000000008152600401610d31906124d8565b60405180910390fd5b6000610d45836106c7565b90508073ffffffffffffffffffffffffffffffffffffffff168473ffffffffffffffffffffffffffffffffffffffff161480610db457508373ffffffffffffffffffffffffffffffffffffffff16610d9c846104a4565b73ffffffffffffffffffffffffffffffffffffffff16145b80610dc55750610dc48185610ac5565b5b91505092915050565b8273ffffffffffffffffffffffffffffffffffffffff16610dee826106c7565b73ffffffffffffffffffffffffffffffffffffffff1614610e44576040517f08c379a0000000000000000000000000000000000000000000000000000000008152600401610e3b9061256a565b60405180910390fd5b600073ffffffffffffffffffffffffffffffffffffffff168273ffffffffffffffffffffffffffffffffffffffff161415610eb4576040517f08c379a0000000000000000000000000000000000000000000000000000000008152600401610eab906125fc565b60405180910390fd5b610ebf83838361152e565b610eca600082610c37565b6001600360008573ffffffffffffffffffffffffffffffffffffffff1673ffffffffffffffffffffffffffffffffffffffff1681526020019081526020016000206000828254610f1a919061264b565b925050819055506001600360008473ffffffffffffffffffffffffffffffffffffffff1673ffffffffffffffffffffffffffffffffffffffff1681526020019081526020016000206000828254610f71919061267f565b92505081905550816002600083815260200190815260200160002060006101000a81548173ffffffffffffffffffffffffffffffffffffffff021916908373ffffffffffffffffffffffffffffffffffffffff160217905550808273ffffffffffffffffffffffffffffffffffffffff168473ffffffffffffffffffffffffffffffffffffffff167fddf252ad1be2c89b69c2b068fc378daa952ba7f163c4a11628f55a4df523b3ef60405160405180910390a4611030838383611533565b505050565b8173ffffffffffffffffffffffffffffffffffffffff168373ffffffffffffffffffffffffffffffffffffffff1614156110a4576040517f08c379a000000000000000000000000000000000000000000000000000000000815260040161109b90612721565b60405180910390fd5b80600560008573ffffffffffffffffffffffffffffffffffffffff1673ffffffffffffffffffffffffffffffffffffffff16815260200190815260200160002060008473ffffffffffffffffffffffffffffffffffffffff1673ffffffffffffffffffffffffffffffffffffffff16815260200190815260200160002060006101000a81548160ff0219169083151502179055508173ffffffffffffffffffffffffffffffffffffffff168373ffffffffffffffffffffffffffffffffffffffff167f17307eab39ab6107e8899845ad3d59bd9653f200f220920489ca2b5937696c3183604051611195919061199b565b60405180910390a3505050565b6111ad848484610dce565b6111b984848484611538565b6111f8576040517f08c379a00000000000000000000000000000000000000000000000000000000081526004016111ef906127b3565b60405180910390fd5b50505050565b606060405180602001604052806000815250905090565b606061122082610bc3565b61125f576040517f08c379a000000000000000000000000000000000000000000000000000000000815260040161125690612845565b60405180910390fd5b60006112696111fe565b9050600081511161128957604051806020016040528060008152506112b4565b80611293846116c0565b6040516020016112a4929190612442565b6040516020818303038152906040525b915050919050565b6001816000016000828254019250508190555050565b600081600001549050919050565b600073ffffffffffffffffffffffffffffffffffffffff168273ffffffffffffffffffffffffffffffffffffffff161415611350576040517f08c379a0000000000000000000000000000000000000000000000000000000008152600401611347906128b1565b60405180910390fd5b61135981610bc3565b15611399576040517f08c379a00000000000000000000000000000000000000000000000000000000081526004016113909061291d565b60405180910390fd5b6113a56000838361152e565b6001600360008473ffffffffffffffffffffffffffffffffffffffff1673ffffffffffffffffffffffffffffffffffffffff16815260200190815260200160002060008282546113f5919061267f565b92505081905550816002600083815260200190815260200160002060006101000a81548173ffffffffffffffffffffffffffffffffffffffff021916908373ffffffffffffffffffffffffffffffffffffffff160217905550808273ffffffffffffffffffffffffffffffffffffffff16600073ffffffffffffffffffffffffffffffffffffffff167fddf252ad1be2c89b69c2b068fc378daa952ba7f163c4a11628f55a4df523b3ef60405160405180910390a46114b660008383611533565b5050565b6114c382610bc3565b611502576040517f08c379a00000000000000000000000000000000000000000000000000000000081526004016114f9906129af565b60405180910390fd5b80600660008481526020019081526020016000209080519060200190611529929190611844565b505050565b505050565b505050565b60006115598473ffffffffffffffffffffffffffffffffffffffff16611821565b156116b3578373ffffffffffffffffffffffffffffffffffffffff1663150b7a02611582610c2f565b8786866040518563ffffffff1660e01b81526004016115a49493929190612a24565b6020604051808303816000875af19250505080156115e057506040513d601f19601f820116820180604052508101906115dd9190612a85565b60015b611663573d8060008114611610576040519150601f19603f3d011682016040523d82523d6000602084013e611615565b606091505b5060008151141561165b576040517f08c379a0000000000000000000000000000000000000000000000000000000008152600401611652906127b3565b60405180910390fd5b805181602001fd5b63150b7a0260e01b7bffffffffffffffffffffffffffffffffffffffffffffffffffffffff1916817bffffffffffffffffffffffffffffffffffffffffffffffffffffffff1916149150506116b8565b600190505b949350505050565b60606000821415611708576040518060400160405280600181526020017f3000000000000000000000000000000000000000000000000000000000000000815250905061181c565b600082905060005b6000821461173a57808061172390612ab2565b915050600a826117339190612b2a565b9150611710565b60008167ffffffffffffffff81111561175657611755611cbc565b5b6040519080825280601f01601f1916602001820160405280156117885781602001600182028036833780820191505090505b5090505b60008514611815576001826117a1919061264b565b9150600a856117b09190612b5b565b60306117bc919061267f565b60f81b8183815181106117d2576117d1612b8c565b5b60200101907effffffffffffffffffffffffffffffffffffffffffffffffffffffffffffff1916908160001a905350600a8561180e9190612b2a565b945061178c565b8093505050505b919050565b6000808273ffffffffffffffffffffffffffffffffffffffff163b119050919050565b82805461185090611fd6565b90600052602060002090601f01602090048101928261187257600085556118b9565b82601f1061188b57805160ff19168380011785556118b9565b828001600101855582156118b9579182015b828111156118b857825182559160200191906001019061189d565b5b5090506118c691906118ca565b5090565b5b808211156118e35760008160009055506001016118cb565b5090565b6000604051905090565b600080fd5b600080fd5b60007fffffffff0000000000000000000000000000000000000000000000000000000082169050919050565b611930816118fb565b811461193b57600080fd5b50565b60008135905061194d81611927565b92915050565b600060208284031215611969576119686118f1565b5b60006119778482850161193e565b91505092915050565b60008115159050919050565b61199581611980565b82525050565b60006020820190506119b0600083018461198c565b92915050565b600081519050919050565b600082825260208201905092915050565b60005b838110156119f05780820151818401526020810190506119d5565b838111156119ff576000848401525b50505050565b6000601f19601f8301169050919050565b6000611a21826119b6565b611a2b81856119c1565b9350611a3b8185602086016119d2565b611a4481611a05565b840191505092915050565b60006020820190508181036000830152611a698184611a16565b905092915050565b6000819050919050565b611a8481611a71565b8114611a8f57600080fd5b50565b600081359050611aa181611a7b565b92915050565b600060208284031215611abd57611abc6118f1565b5b6000611acb84828501611a92565b91505092915050565b600073ffffffffffffffffffffffffffffffffffffffff82169050919050565b6000611aff82611ad4565b9050919050565b611b0f81611af4565b82525050565b6000602082019050611b2a6000830184611b06565b92915050565b611b3981611af4565b8114611b4457600080fd5b50565b600081359050611b5681611b30565b92915050565b60008060408385031215611b7357611b726118f1565b5b6000611b8185828601611b47565b9250506020611b9285828601611a92565b9150509250929050565b611ba581611a71565b82525050565b6000602082019050611bc06000830184611b9c565b92915050565b600080600060608486031215611bdf57611bde6118f1565b5b6000611bed86828701611b47565b9350506020611bfe86828701611b47565b9250506040611c0f86828701611a92565b9150509250925092565b600060208284031215611c2f57611c2e6118f1565b5b6000611c3d84828501611b47565b91505092915050565b611c4f81611980565b8114611c5a57600080fd5b50565b600081359050611c6c81611c46565b92915050565b60008060408385031215611c8957611c886118f1565b5b6000611c9785828601611b47565b9250506020611ca885828601611c5d565b9150509250929050565b600080fd5b600080fd5b7f4e487b7100000000000000000000000000000000000000000000000000000000600052604160045260246000fd5b611cf482611a05565b810181811067ffffffffffffffff82111715611d1357611d12611cbc565b5b80604052505050565b6000611d266118e7565b9050611d328282611ceb565b919050565b600067ffffffffffffffff821115611d5257611d51611cbc565b5b611d5b82611a05565b9050602081019050919050565b82818337600083830152505050565b6000611d8a611d8584611d37565b611d1c565b905082815260208101848484011115611da657611da5611cb7565b5b611db1848285611d68565b509392505050565b600082601f830112611dce57611dcd611cb2565b5b8135611dde848260208601611d77565b91505092915050565b60008060008060808587031215611e0157611e006118f1565b5b6000611e0f87828801611b47565b9450506020611e2087828801611b47565b9350506040611e3187828801611a92565b925050606085013567ffffffffffffffff811115611e5257611e516118f6565b5b611e5e87828801611db9565b91505092959194509250565b600067ffffffffffffffff821115611e8557611e84611cbc565b5b611e8e82611a05565b9050602081019050919050565b6000611eae611ea984611e6a565b611d1c565b905082815260208101848484011115611eca57611ec9611cb7565b5b611ed5848285611d68565b509392505050565b600082601f830112611ef257611ef1611cb2565b5b8135611f02848260208601611e9b565b91505092915050565b60008060408385031215611f2257611f216118f1565b5b6000611f3085828601611b47565b925050602083013567ffffffffffffffff811115611f5157611f506118f6565b5b611f5d85828601611edd565b9150509250929050565b60008060408385031215611f7e57611f7d6118f1565b5b6000611f8c85828601611b47565b9250506020611f9d85828601611b47565b9150509250929050565b7f4e487b7100000000000000000000000000000000000000000000000000000000600052602260045260246000fd5b60006002820490506001821680611fee57607f821691505b6020821081141561200257612001611fa7565b5b50919050565b7f4552433732313a20617070726f76656420717565727920666f72206e6f6e657860008201527f697374656e7420746f6b656e0000000000000000000000000000000000000000602082015250565b6000612064602c836119c1565b915061206f82612008565b604082019050919050565b6000602082019050818103600083015261209381612057565b9050919050565b7f4552433732313a20617070726f76616c20746f2063757272656e74206f776e6560008201527f7200000000000000000000000000000000000000000000000000000000000000602082015250565b60006120f66021836119c1565b91506121018261209a565b604082019050919050565b60006020820190508181036000830152612125816120e9565b9050919050565b7f4552433732313a20617070726f76652063616c6c6572206973206e6f74206f7760008201527f6e6572206e6f7220617070726f76656420666f7220616c6c0000000000000000602082015250565b60006121886038836119c1565b91506121938261212c565b604082019050919050565b600060208201905081810360008301526121b78161217b565b9050919050565b7f4552433732313a207472616e736665722063616c6c6572206973206e6f74206f60008201527f776e6572206e6f7220617070726f766564000000000000000000000000000000602082015250565b600061221a6031836119c1565b9150612225826121be565b604082019050919050565b600060208201905081810360008301526122498161220d565b9050919050565b7f4552433732313a206f776e657220717565727920666f72206e6f6e657869737460008201527f656e7420746f6b656e0000000000000000000000000000000000000000000000602082015250565b60006122ac6029836119c1565b91506122b782612250565b604082019050919050565b600060208201905081810360008301526122db8161229f565b9050919050565b7f4552433732313a2062616c616e636520717565727920666f7220746865207a6560008201527f726f206164647265737300000000000000000000000000000000000000000000602082015250565b600061233e602a836119c1565b9150612349826122e2565b604082019050919050565b6000602082019050818103600083015261236d81612331565b9050919050565b7f45524337323155524953746f726167653a2055524920717565727920666f722060008201527f6e6f6e6578697374656e7420746f6b656e000000000000000000000000000000602082015250565b60006123d06031836119c1565b91506123db82612374565b604082019050919050565b600060208201905081810360008301526123ff816123c3565b9050919050565b600081905092915050565b600061241c826119b6565b6124268185612406565b93506124368185602086016119d2565b80840191505092915050565b600061244e8285612411565b915061245a8284612411565b91508190509392505050565b7f4552433732313a206f70657261746f7220717565727920666f72206e6f6e657860008201527f697374656e7420746f6b656e0000000000000000000000000000000000000000602082015250565b60006124c2602c836119c1565b91506124cd82612466565b604082019050919050565b600060208201905081810360008301526124f1816124b5565b9050919050565b7f4552433732313a207472616e736665722066726f6d20696e636f72726563742060008201527f6f776e6572000000000000000000000000000000000000000000000000000000602082015250565b60006125546025836119c1565b915061255f826124f8565b604082019050919050565b6000602082019050818103600083015261258381612547565b9050919050565b7f4552433732313a207472616e7366657220746f20746865207a65726f2061646460008201527f7265737300000000000000000000000000000000000000000000000000000000602082015250565b60006125e66024836119c1565b91506125f18261258a565b604082019050919050565b60006020820190508181036000830152612615816125d9565b9050919050565b7f4e487b7100000000000000000000000000000000000000000000000000000000600052601160045260246000fd5b600061265682611a71565b915061266183611a71565b9250828210156126745761267361261c565b5b828203905092915050565b600061268a82611a71565b915061269583611a71565b9250827fffffffffffffffffffffffffffffffffffffffffffffffffffffffffffffffff038211156126ca576126c961261c565b5b828201905092915050565b7f4552433732313a20617070726f766520746f2063616c6c657200000000000000600082015250565b600061270b6019836119c1565b9150612716826126d5565b602082019050919050565b6000602082019050818103600083015261273a816126fe565b9050919050565b7f4552433732313a207472616e7366657220746f206e6f6e20455243373231526560008201527f63656976657220696d706c656d656e7465720000000000000000000000000000602082015250565b600061279d6032836119c1565b91506127a882612741565b604082019050919050565b600060208201905081810360008301526127cc81612790565b9050919050565b7f4552433732314d657461646174613a2055524920717565727920666f72206e6f60008201527f6e6578697374656e7420746f6b656e0000000000000000000000000000000000602082015250565b600061282f602f836119c1565b915061283a826127d3565b604082019050919050565b6000602082019050818103600083015261285e81612822565b9050919050565b7f4552433732313a206d696e7420746f20746865207a65726f2061646472657373600082015250565b600061289b6020836119c1565b91506128a682612865565b602082019050919050565b600060208201905081810360008301526128ca8161288e565b9050919050565b7f4552433732313a20746f6b656e20616c7265616479206d696e74656400000000600082015250565b6000612907601c836119c1565b9150612912826128d1565b602082019050919050565b60006020820190508181036000830152612936816128fa565b9050919050565b7f45524337323155524953746f726167653a2055524920736574206f66206e6f6e60008201527f6578697374656e7420746f6b656e000000000000000000000000000000000000602082015250565b6000612999602e836119c1565b91506129a48261293d565b604082019050919050565b600060208201905081810360008301526129c88161298c565b9050919050565b600081519050919050565b600082825260208201905092915050565b60006129f6826129cf565b612a0081856129da565b9350612a108185602086016119d2565b612a1981611a05565b840191505092915050565b6000608082019050612a396000830187611b06565b612a466020830186611b06565b612a536040830185611b9c565b8181036060830152612a6581846129eb565b905095945050505050565b600081519050612a7f81611927565b92915050565b600060208284031215612a9b57612a9a6118f1565b5b6000612aa984828501612a70565b91505092915050565b6000612abd82611a71565b91507fffffffffffffffffffffffffffffffffffffffffffffffffffffffffffffffff821415612af057612aef61261c565b5b600182019050919050565b7f4e487b7100000000000000000000000000000000000000000000000000000000600052601260045260246000fd5b6000612b3582611a71565b9150612b4083611a71565b925082612b5057612b4f612afb565b5b828204905092915050565b6000612b6682611a71565b9150612b7183611a71565b925082612b8157612b80612afb565b5b828206905092915050565b7f4e487b7100000000000000000000000000000000000000000000000000000000600052603260045260246000fdfea26469706673582212200e5cd431ad02196149edaa982ad6653a71bd9e4fcb540a48821097c6c475fda064736f6c634300080c0033",
  "immutableReferences": {},
  "source": "pragma solidity ^0.8.0;\n\nimport \"@openzeppelin/contracts/token/ERC721/ERC721.sol\";\nimport \"@openzeppelin/contracts/token/ERC721/extensions/ERC721URIStorage.sol\";\nimport \"@openzeppelin/contracts/utils/Counters.sol\";\n\ncontract RoseApe721_V2 is ERC721URIStorage {\n    using Counters for Counters.Counter;\n    Counters.Counter private _tokenIds;\n\n     string private _name;\n     string private _symbol;\n     uint256 public _maxSupply = 10000;\n     uint256 private _totalSupply;\n\n    constructor(string memory name_ , string memory symbol_ ) ERC721(\"GameItem\", \"ITM\") {\n        _name = name_;\n        _symbol = symbol_;\n    }\n\n    function awardItem(address player, string memory tokenURI)\n        public\n        returns (uint256)\n    {\n        _tokenIds.increment();\n\n        uint256 newItemId = _tokenIds.current();\n        _mint(player, newItemId);\n        _setTokenURI(newItemId, tokenURI);\n\n        return newItemId;\n    }\n}",
  "sourcePath": "/Users/alvinreyes/Projects/roseproject/roseapes-nft-contracts/contracts/RoseApeERC721_V2.sol",
  "compiler": {
    "name": "solc",
    "version": "0.8.12+commit.f00d7308.Emscripten.clang"
  },
  "schemaVersion": "3.4.6",
  "updatedAt": "2022-03-17T04:57:31.945Z",
  "networkType": "ethereum",
  "devdoc": {
    "kind": "dev",
    "methods": {
      "approve(address,uint256)": {
        "details": "See {IERC721-approve}."
      },
      "balanceOf(address)": {
        "details": "See {IERC721-balanceOf}."
      },
      "getApproved(uint256)": {
        "details": "See {IERC721-getApproved}."
      },
      "isApprovedForAll(address,address)": {
        "details": "See {IERC721-isApprovedForAll}."
      },
      "name()": {
        "details": "See {IERC721Metadata-name}."
      },
      "ownerOf(uint256)": {
        "details": "See {IERC721-ownerOf}."
      },
      "safeTransferFrom(address,address,uint256)": {
        "details": "See {IERC721-safeTransferFrom}."
      },
      "safeTransferFrom(address,address,uint256,bytes)": {
        "details": "See {IERC721-safeTransferFrom}."
      },
      "setApprovalForAll(address,bool)": {
        "details": "See {IERC721-setApprovalForAll}."
      },
      "supportsInterface(bytes4)": {
        "details": "See {IERC165-supportsInterface}."
      },
      "symbol()": {
        "details": "See {IERC721Metadata-symbol}."
      },
      "tokenURI(uint256)": {
        "details": "See {IERC721Metadata-tokenURI}."
      },
      "transferFrom(address,address,uint256)": {
        "details": "See {IERC721-transferFrom}."
      }
    },
    "version": 1
  },
  "userdoc": {
    "kind": "user",
    "methods": {},
    "version": 1
  }
}